:020000040800F2
:10800000F8FF03208DD403089F1D03088D1D03086E
:10801000A11D0308B11D0308C11D030800000000D5
:10802000000000000000000000000000D11D030857
:10803000D31D030800000000C13003081D310308F0
:108040006DD30308911E03089D1E0308A51E030897
:1080500091B203086DD30308251E03082B1E0308E5
:10806000311E0308371E03083D1E0308A9550308E7
:10807000B9550308C9550308D9550308E95503083C
:10808000F9550308095603086DD303086DD3030897
:10809000691F0308711F0308791F0308431E0308A3
:1080A000B91E0308BF1E0308D11E0308D71E03080C
:1080B000DD1E0308E31E0308E91E03087F1F0308F3
:1080C000851F03088B1F0308911F03086DD3030846
:1080D0006DD30308391F03083F1F0308451F03081A
:1080E000671E0308971E0308ED1D0308151F0308EC
:1080F0001B1F0308331F03082D1F0308195603080D
:108100006DD3030809CE0308F11E03086DD30308DD
:108110004B1F0308511F0308091F03080F1F030803
:1081200029560308395603084956030859560308C7
:108130006956030800000000000000000000000075
:10814000000000000000000000000000D51D030832
:10815000795603088956030899560308571F0308E0
:108160006DD303086DD303086DD303086DD30308E3
:10817000091E0308E11D03080000000000000000C4
:108180006DD303086DD303085D1F0308631F030845
:108190006DD303086DD30308000000006DD30308FE
:1081A0000000000000000000000000006DD3030884
:1081B0006DD303086DD30308000000000000000029
:1081C00000000000000000000000000000000000AF
:1081D00000000000000000000000000095BC030843
:1081E000034B1B685B681A690260186100207047C6
:1081F00094490020034B1B685B681A6912681A6176
:10820000704700BF94490020C460056146618761E2
:10821000C0F81C80C0F82090C0F824A0C0F828B096
:10822000C0F82CD080ED0C8B80ED0E9B80ED10AB58
:10823000C0F808E0FFF7D4BF08B5114B1B685A68B7
:1082400013690BB929F0B0FA196858601161184622
:10825000C468056946698769D0F81C80D0F8209009
:10826000D0F824A0D0F828B0D0F82CD090ED0C8B0A
:1082700090ED0E9B90ED10ABD0F808E00120704718
:108280009449002010B50021044600F025FB18B9E0
:1082900014B120460CF016FF10BD002100F01CBBED
:1082A00010B50121044600F017FB18B914B120469F
:1082B0000CF008FF10BDFFF7E5BF10B501220C461A
:1082C00000F050FC18B914B120460CF0FBFE10BDB4
:1082D00000F048BC00F0D6BB2DE9F04300252A4C45
:1082E0000326D4F810720021013143189A0803F0D4
:1082F0000303BA5C5B0042FA03F303F00303022BAF
:10830000F2D00901D4F81C328A0803EB001009B33B
:1083100000EB820103681A0719D1D4F81C229A4293
:1083200015D89A1AD4F820724FEA121C9F424FEACD
:1083300092120CF003030AD9D4F810E25B001EF885
:10834000028048FA03F707F00307012F09D0043031
:108350008842DFD1B5B1013D05F58A7334F81300C9
:10836000BFE706FA03F33F2D05F58A7943EA0803D0
:108370000EF8023003D824F819C00135E7E7C4F835
:108380002472E4E7BDE8F083E8340020F0B4194F2C
:1083900001224FF0030CD7E98653C01A0409C10922
:1083A00004F0070680096B5CB240A60823EA0203CA
:1083B0006B5404F00301D7F8B432D7F81052984246
:1083C00038BFC7F8B4022A5C490001340CFA01F343
:1083D00004F0030122EA03024B00AA55A608D7F8CD
:1083E0001052AA5D42FA03F303F00303022BEBD011
:1083F000F0BC7047E834002021F00F03002170B575
:108400001C1A164E164DE400C5F82032A6FB046473
:10841000C5F81002640AA3EB841306192246C5F8B6
:108420001C32C5E9854620F0E3FBD5F81802A2000E
:1084300000210732D20820F0DBFB00234FF480310B
:108440004FF0FF3205F52E70C5F8B432C5F8A8120A
:10845000C5E9AB32BDE870402BF062BAF32C23FAC9
:10846000E8340020034AB2F8A8320133A2F8A83257
:10847000704700BFE8340020034AB2F8A832013B3D
:10848000A2F8A832704700BFE8340020034BB3F8CD
:10849000A802003018BF0120704700BFE834002058
:1084A000F8B51C4C00220327B4F8A832251D04F5AA
:1084B000F476C4F8AC220133C4F82422A4F8A8321C
:1084C00055F8042F130718D1D4F81C329A4214D34C
:1084D000D31AD4F8201218098A424FEA931300F0F5
:1084E00003020AD2D4F810C252001CF803E04EFA7C
:1084F00002F101F00301012902D0AE42E0D1F8BD42
:1085000007FA02F242EA0E020CF80320FFF7E4FE3B
:10851000F3E700BFE834002071B3F8B5041F174E2D
:10852000032704EB810554F8043F1A0718D1D6F845
:108530001C229A4214D89A1AD6F82012100999428D
:108540004FEA921200F003030AD9D6F810C25B007A
:108550001CF802E04EFA03F101F00301012902D0F8
:10856000A542E0D1F8BD07FA03F343EA0E030CF885
:108570000230FFF7B1FEF3E7704700BFE834002098
:108580002DE9F04F7F4C85B0D4F81432D4F8242272
:108590009B00002A63D04FF000084FF0030EC4F890
:1085A0002482002B00F08A80002502E001359D42E4
:1085B00051D2D4F81062A90805F00302715C520090
:1085C00041FA02F202F00302032AEFD12846002307
:1085D0000022013211188F0801F00301F75D4900F4
:1085E00047FA01F101F003010229F2D01201D4F897
:1085F0001C12970801EB001012B300EB8707066806
:1086000032071AD1D4F81C22964216D3B21AD4F8E3
:1086100020124FEA121C8E424FEA92120CF0030114
:108620000BD2D4F81092490019F802A04AFA01F6C8
:1086300006F00306012E00F090800430B842DED12F
:10864000002B00F09880013BD4F8106203F58A7289
:1086500034F81200BCE7D4F82422002A9FD16BB36F
:1086600000214FF0030A4FF001094FF002080E46B7
:1086700005E0BEF1010F39D001369E421ED2B70887
:10868000D4F8100206F00305C25D00EB070C6D0084
:1086900042FA05FE0EF0030EBEF1020F19D0BEF134
:1086A000030FE6D108FA05F50136002122EA05029A
:1086B000C255D4F814329B009E42E0D3B4F8A832DD
:1086C0000022013BC4F8B422A4F8A83205B0BDE8EA
:1086D000F08F0029D0D00AFA05F5012122EA05021F
:1086E0008CF80020D4F814329B00C5E7F308D4F8C6
:1086F000181206F0070B11F803E0194401934EFA23
:108700000BF0C307E7D53001D4F81C2252F800C0A3
:108710001044BCF1000F14D002AAB0210CF00CF8E8
:10872000DDE9013242B10CF0F1FEDDE902010CF0AD
:10873000D3FE0CF001FF019BD4F81822D11812F8D7
:1087400003E009FA0BFB2EEA0B0E81F800E0D4F8E7
:10875000103203EB070CDA5DBDE70EFA01F13F2B97
:1087600003F58A7B41EA0A0109F8021007D824F8C8
:108770001BC0013361E7D4F814329B0016E7C4F83C
:1087800024625AE7E8340020054B0021B3F8A82200
:10879000C3F824120132A3F8A822FFF7F1BE00BFEC
:1087A000E83400204B4A00232DE9F04FD2F8201284
:1087B00083B0D2F81C421F46D2F810E29946D2F894
:1087C0001422091B43601E4601609C4683601C46C0
:1087D00001931946C3609A4603614FEA82084361D8
:1087E00083619EF800304FEA4A0A43FA0AF303F025
:1087F0000303012B3BD0002B56D0022B02D10136B4
:1088000001344660013188450CBF0125002532D076
:108810008B0801F0030A1EF803304FEA4A0243FABC
:1088200002F212F0030214BFAB464FF0010BBBF192
:10883000000F41D1012AD6D15D461346012C21D02B
:10884000022C02D14269013242614C4501D9A14654
:108850008461DBB98B0801F0030A1EF803304FEA8C
:108860004A0A43FA0AF303F00303012BC3D101368A
:108870001C464660C6E7012B14BF2B4645F001039A
:10888000012CDDD1026901320261DEE7BC4502D96B
:108890006746C0F80CC0ADB1019B36011B01C0E9B1
:1088A000016303B0BDE8F08F019A0CF1010C1C4686
:1088B000013201928260A5E7012A14BF2B4645F0E0
:1088C0000103BBE78B08AC4601F0030A1EF8033036
:1088D00089E700BFE83400200F302DE9F047070991
:1088E00050D0674EB6F8A832002B4BD1B6F8AA325A
:1088F0000D46002B0CBF4FF0010E4FF0000E46D17D
:10890000D6F8B442D6F814C2A44538D9D6F8100225
:10891000611E002201441AE00132974251D913F03E
:108920000C0F1ED10132974240F2A08013F0300F9D
:108930001CD10132974240F29C8013F0C00F1AD133
:108940000132974240F298800134644517D211F801
:10895000013F13F0030FDFD013F00C0F4FF00002B4
:10896000E0D013F0300F4FF00002E2D013F0C00F50
:108970004FF00002E4D0013400226445E7D3BEF199
:10898000000F13D04FF0000A5046BDE8F087D6E93B
:10899000AB239A42B4D330F049FAD6F8B442D6F8B1
:1089A00014C2A445EED94FF0010EAFE730F03EFA05
:1089B000D6F8B442D6F814C24FF0010EA445A5D89B
:1089C000E0E7A400A11A012A01F1010803D1631C08
:1089D0009B08C6F8B432012308F0030C4FEA980E46
:1089E00002310CFA03FC10F80E908C4203FA0CF3DF
:1089F00043EA090300F80E3012D34FF0020E01F0E3
:108A000003038808D6F810C201315B001CF80090FF
:108A10008C420EFA03F343EA09030CF80030EED25D
:108A2000D6F81C924FEA0814D6F8AC32120109EBC2
:108A3000040A00211F445046C6F8AC7220F0D8F852
:108A4000EB07A1D50023D6F818124FEAD80208F098
:108A5000070849F804300123885C03FA08F848EA5B
:108A60000008504601F80280BDE8F087A4000134F8
:108A7000A8E7A4000234A5E7A4000334A2E700BFDE
:108A8000E8340020F0B41C4EB6F8A83293BB88B38B
:108A9000D6F81C320121D6F81872C01A0409C5098B
:108AA00004F0070C83097A5D01FA0CF122EA010255
:108AB00004F003017A55A508D6F8B4220327D6F8A6
:108AC0001002934238BFC6F8B432C25C4900013488
:108AD00007FA01F304F0030122EA03024B004255B6
:108AE000A508D6F81002425D42FA03F303F003032F
:108AF000022BEBD0F0BC7047E834002010F00F02DE
:108B00000DD11749D1F81C32834208D810B4D1F8DE
:108B10002042844205D810465DF8044B704700207F
:108B20007047C31AD1F810121C099B0904F0030006
:108B3000CB5C40000341104603F00303012BEBD153
:108B4000013023189A0803F003038A5C5B0042FAA1
:108B500003F303F00303022BF2D00001DCE700BFB4
:108B6000E83400202DE9F84F0B460746002800F0B6
:108B7000A980594DB5F8A842002974D0002C74D1B1
:108B8000D5F81C0201F10F06D5F81432A7EB000A44
:108B900036094FEA830923464FEA1A1C0CF1010EED
:108BA000F14540F29580D5F810024FF001084FEAE8
:108BB0009E0B0EF0030410F80BB064004BFA04F4A3
:108BC00004F00304022C54D024B9013308EB03044D
:108BD000B44250D3464542D023D34344B3424FD24C
:108BE000002A42D0D5F818324FEADA1A0CF0070CF6
:108BF000084613F80A1041FA0CF101F00101FFF7E1
:108C00006BFE044688B34FEA081239461FF0ACFFEA
:108C1000B5F8A83223BB3846FFF7B8FB2046BDE8BD
:108C2000F88F66444FF00309C444304600F0030354
:108C30004FEA900ED5F8101201305B0011F80E408B
:108C4000604509FA03F324EA030301F80E30EDD17D
:108C5000B608D5F8B4329E4238BFC5F8B4623C4677
:108C60002046BDE8F88F002CD6D000242046BDE871
:108C7000F88F08F101080EF1010EF14597D1A9E72F
:108C80000CEB0800B444844510D9022100F0030322
:108C90008408D5F8102201305B0012F804E0844506
:108CA00001FA03F343EA0E031355EFD1A6EB0802D2
:108CB0003C4607EB0810002112011FF099FF2046E7
:108CC000BDE8F88F01461846BDE8F84FFFF704BE2F
:108CD0004FF001087EE700BFE834002010B58AB0ED
:108CE0000B4C03A8FFF75EFD059A049B20460092FB
:108CF0000849039A00F0C4FE069A099B20460649DB
:108D0000CDE90032DDE9072300F0BAFE0AB010BD5C
:108D1000E87D0508282505084C2505082DE9F843B8
:108D2000DFF86C914A49D9F81C224A4800F0A8FEA5
:108D3000D9F81412890076D00024DFF85881464F04
:108D4000444E0CE0012D49D02E224449304600F01B
:108D500097FED9F8141201348900A14263D904F0B6
:108D60000305A206D9F810024FEA45050BD0A30867
:108D7000C35C43FA05F505F00305022D2CD0032D45
:108D8000E0D16D22E1E7A4464FEA9C020CF0030318
:108D9000825C5B0042FA03F39B0703D10CF1010CE8
:108DA0008C45F1D3ACEB04027F2A0CD992092C49F3
:108DB00030462CF03F0400F063FED9F81432B4EBD7
:108DC000830F30D2002508EA04123946304600F0FD
:108DD00057FED9F81002CAE73D22B6E7D9F81C229F
:108DE00023012049D2588A4223D01F4B9A4222D0D5
:108DF0001E4B9A4225D01E4B9A421ED01D4B9A42C2
:108E00001BD01D4B9A421AD01C4B9A4217D01C4BB8
:108E10009A4218D01B4B9A4217D01B4B9A420CBF58
:108E20004D22682291E719490A48BDE8F84300F04D
:108E3000E4BA542289E74C2287E7532285E741228E
:108E400083E7442281E746227FE742227DE700BF95
:108E5000E0240508E87D05081C25050824250508EB
:108E60000025050864BE0508A0AC0508489E050855
:108E700098BB0508BCB80508B49905087899050899
:108E80001CA60508ACA6050808AF0508FC240508C3
:108E9000E8340020F0FF0F00054B5B695A688242FE
:108EA00004D8801A043053F8200070471B68F5E797
:108EB000E8340020014441F20553884204D398B2BB
:108EC000002808BF0120704703EB431310F8012B63
:108ED0005340F2E70448054B4361002300F5FC7062
:108EE00040F80C3C2AF01CBDE8340020D01D0608D8
:108EF0002DE9F84F82468946FFF7DCFF134B834686
:108F00005C690CB920461EE004F11008E66845468D
:108F100008EB8606B5422F4601D32468F1E755F8E1
:108F2000040B03885B45F5D183784B45F2D14A4663
:108F3000514603301FF082FE0028EBD1A7EB080753
:108F4000606800EBA700BDE8F88F00BFE8340020A0
:108F50002DE9F04780460E46FFF7CAFF024600287B
:108F600071D13E4C351DD4F8EC0190B1D4E97C139D
:108F70002B448B422BD92944FFF7AAF90746E8B9BD
:108F80000246D4F8F411D4F8EC01FFF7A1F9C4F8C3
:108F9000EC71802D2F4638BF80273846FFF77DF9CA
:108FA000C4F8EC01002852D12846FFF776F9C4F83E
:108FB000EC0100284AD128460CF084F8D4F8F031AE
:108FC0002B44C4F8F031D4F8EC31002BE1D0D4F8C4
:108FD000F4913146D4F8ECA140464D440AEB090720
:108FE000C4F8F451FFF766FF0AF80900000ABE70E2
:108FF000324678704146F81C1FF0B6FDBB190026BA
:10900000DE706369D3E90253AB4212D36D000A2DBF
:1090100038BF0A25281D8000FFF73FF90028CAD075
:10902000626953680260D268C6601344C0E90135C2
:1090300060616369D9685A68481C0431013AD86094
:10904000024443F821701046BDE8F0872F46002304
:10905000C4F8F071C4F8F431B9E700BFE834002077
:1090600010B504461FF00CFE01462046BDE8104036
:10907000FFF76EBF08B5FFF70FFF008808BD08B502
:10908000FFF70AFF807808BD08B5FFF705FF03303A
:1090900008BD08B5FFF700FF837803300B6008BDFB
:1090A0002DE9F8431D46002307468846036016460F
:1090B0000B6013602B60164BDFF858905C690CB1A5
:1090C0004C4505D12B68326813442B60BDE8F8830A
:1090D0003B6801333B60E268D8F800301344C8F8BD
:1090E000003004F11003E26803EB8202934207D3DD
:1090F0002046FFF703FD2B68246818442860DEE74C
:1091000053F8041B88783168043101443160EDE77D
:10911000E8340020D01D06082DE9F8430E4B0F4F10
:109120005C69DFF83C80DFF83C900CB1BC4201D1B7
:10913000BDE8F88304F11005E36805EB8306B5424A
:1091400001D32468F1E755F8042B41464846033221
:1091500000F096FCF3E700BFE8340020D01D0608BD
:10916000EC3E0508E87D050838B544680546036807
:109170000C449C4210D9037BDB0703D50021074830
:109180000BF096FF1034806824F007040834214661
:10919000FFF793F82C60A86038BD00BF78A30508DE
:1091A00070B504460E4611461546FFF7DDFF314601
:1091B0002A46D4E9013018441FF002FD62682A44AF
:1091C000626070BD70B5466804468E42354628BF61
:1091D0000D460121FFF7C8FFA368681C721B5919CF
:1091E00018441FF0EDFC6368A068013328446360F5
:1091F00070BD38B50446081E4FF0000508BF0120B9
:1092000065602060FFF73EF8237BA06065F30003F4
:10921000237338BD38B505460C460131FFF7E9FF29
:109220006C6038BD00230160C0E90132037B43F06C
:10923000010303737047000038B514460546FFF775
:10924000D8FF024B2560636038BD00BFA1910008C4
:10925000037BDB0710B5044602D48068FFF73AF8B9
:109260000023A36010BD38B505461020FFF70AF8AB
:1092700004462946FFF7BDFF204638BD10B5044619
:1092800050B1037BDB0702D48068FFF723F8204648
:10929000BDE81040FFF71EB810BD000038B5037BD5
:1092A00004460D46DB0703D5002107480BF000FFFD
:1092B000016880682944FFF700F82368A0601D4416
:1092C0001844256038BD00BF78A3050838B50446AA
:1092D0000D46FFF749FFD4E901301D44184465608D
:1092E00038BDD0E9002310B59A42044602D10121CD
:1092F000FFF7D4FF0021D4E90132D154A06810BD9A
:1093000010B50C460121FFF7E1FF047010BD7F2965
:10931000F8B50C46CEB204D80121FFF7D7FF06708E
:10932000F8BD06F03F06B1F5006FC1F3871546F0B2
:10933000800607D265F03F050221FFF7C7FF4670A0
:109340000570EDE705F03F05B1F5803FC1F3073744
:1093500045F0800508D20321FFF7B8FF67F01F032F
:10936000457003708670DBE70421A40CFFF7AEFFA5
:1093700007F03F0364F00F04857063F07F03C6704D
:1093800004704370CCE738B505460C4608461FF01C
:1093900077FC214602462846BDE83840FFF700BF6B
:1093A00010B51446FFF70EFF047010BD10B514463B
:1093B000FFF708FF047010BD43688B422CBF5B1A97
:1093C00000234360704738B51546426804460B4693
:1093D0008A4203D929448A4201D8436038BD806853
:1093E000521A014418441FF0EBFB6268521B626082
:1093F000F4E70846114629F079BC70B505460846E1
:109400000E461FF03DFC044620B102466B68314613
:1094100028689847204670BD2DE9F74F0191914685
:109420009DF8301006460D9A11F0DF0FA2EB0902ED
:109430003DD030290CA9244F0EBF4FF010080F4625
:109440004FF0010813F0800435D002EBD2746410A1
:10945000151B002C36DDA246D045C346736839463D
:10946000A8BFD3463068AAEB0B0A5A469847BAF110
:10947000000FF1DCB9F1000F05D04C4473684A4687
:10948000019930689847002D0DDD2C44A845C14650
:1094900073683946A8BFA9463068A5EB09054A4656
:1094A0009847002DF2DC204603B0BDE8F08F074F4F
:1094B0004FF01008C6E713F0010501D11446C8E7C4
:1094C0001546D7E70024D5E70C7E0508FB7D050887
:1094D0002DE9F043074689B00020119D9DF8488092
:1094E000139E8DF80F0002B3814219DA2D224942F2
:1094F0008DF80F20109A08AC0DF1100EA2F10A00A1
:10950000B1FBF3FC03FB1C12092A8CBF121830328A
:1095100004F8012D74450FD08B420DD86146EFE75A
:10952000A80727D52B228DF80F200029E2D1302360
:109530000DF11F048DF81F3015F040099DF80F3014
:109540001CD023B301222B460DF10F013846013EFA
:10955000CDE90082FFF760FF814608AA2B4621462D
:109560003846121BCDE90086FFF756FF484409B084
:10957000BDE8F0836A07D8D52022D4E7002BECD0D1
:1095800004AA9442E9D904F8013C013CE5E7994674
:10959000E3E700002DE9F04F93B080461E46C80770
:1095A0009DF874300C4691461C9D0693DDE91E7AA9
:1095B0000BD4A10703D122687A4B9A4205D02046EA
:1095C0000CF038FD400040F0010415F0810306D195
:1095D000069A302A03D15745B8BF57469A462046C7
:1095E0000DF1280B0FF0A7FD002818DBAA0712D5F4
:1095F0002B238DF828300DF12903E806F6B21DD58E
:10960000B9F1020F0DD130211A4602F8021B711C6C
:109610005970134612E06B0701D52023E9E75B463A
:10962000EBE7B9F1080F61D1A9054FF030021A70CC
:1096300049BF06F10E0201335A700233002215F0C1
:10964000200F0EA91A70A3EB0B030B914FF0100122
:1096500005930CBF13462C23BAF1010F8DF8272078
:10966000C8BF45F04005CDE90C1215F04001CDE929
:109670000263079144D023460CA90BA8CDE90092C0
:109680000DAA0FF027FC037881462D2B06D18DF80B
:10969000273000F101090D9B013B0D93BAF1010F39
:1096A0003CDD0D9C079B5445B8BF54462BB19DF83B
:1096B000273003B10134059B1C44A7422BDD15F074
:1096C0000103A7EB040427D126461C4625F001051B
:1096D0004EB12023019634494046009300231A4698
:1096E000FFF79AFE06463023069319E0B9F1100FF2
:1096F000A4D130211A4602F8021B06F1170187E7B0
:109700000AAB0DAA0CA90BA8CDE9009323460FF0D4
:10971000E1FB8146C2E700240026D7E70024264665
:10972000079BDBB19DF8273053B1002301220DF1D7
:1097300027014046013FCDE90032FFF76DFE0644A8
:10974000059B5BB10023012259464046CDE900321A
:10975000059AFFF761FE059B0644FF1A069BBAF1C6
:10976000010FC8BF57460D9A4946009340460197DE
:109770002B46FFF751FE06444CB1202301940A49C1
:109780004046009300231A46FFF746FE06440B9816
:109790000EAB984201D0FEF79DFD304613B0BDE8F8
:1097A000F08F00BF08AB05084B3506082DE9F043E4
:1097B00016468BB080469946B207129F3CD416F0ED
:1097C000040F0CBF0023202300930A46139B202183
:1097D00002A809F045FEF30504460DD5431C1F2BD6
:1097E0000AD80AAA00211444252204F8202C0AAA27
:1097F0001C461A4402F8201C16F040051ED09DF8A5
:1098000008302F2B4FF000031AD8012202A940463E
:10981000013F013CCDE90032FFF7FEFD0DF10901EA
:109820000546334622464046CDE90097FFF7F4FD52
:1098300028440BB0BDE8F0832B23C5E702A9F0E76D
:1098400002A91D46EDE700002DE9F04F824689B0E0
:10985000144600260B461D4613F8012B0AB1252A93
:10986000F9D1A94208D26F1ADAF80430DAF8000008
:109870003A463E44984729460B78002B00F0F88082
:10988000013120234FF000090A4612F8015B0DB99F
:109890000A271DE02D2D03D149F001091146F3E7F8
:1098A0002B2D02D149F00209F8E7202D02D149F011
:1098B0000409F3E7212D02D149F00809EEE7302D24
:1098C00022D149F040092B46E8E707FB0525303D4A
:1098D000884611F8012BA2F130000928F5D92E2A6B
:1098E00039D198F801202A2A10D04FF0000B0A270E
:1098F000884611F8012BA2F1300009280CD807FB8B
:109900000B2BABF1300BF3E70025C1E754F8042B28
:1099100008F1020822EAE27B98F800206C2A08BFCE
:1099200008F1010898F80070002F00F0A180642F62
:109930007DD028D8502F2DD010D8A7F14502022A6B
:1099400040F28380DAF8043001224146DAF8000060
:109950009847013649E04FF0FF3BDDE7622F38D0F2
:1099600049D8582FEED17A1C27F00F07CDF8049074
:1099700002F006020F3FCDE90235FFB2C2F110033B
:10998000009700225BE0712F3FD00BD8672F5CD986
:10999000702FD7D1CDF80490CDE902356123009323
:1099A0001023EEE7752FDED0782FDCD0732FC9D1CE
:1099B000BBF1FF3F54F8047B05D1384605931FF0F7
:1099C0005FF9059B83465A463946CDE900354B463B
:1099D00007E054F8042BCDE900354B4642B1042290
:1099E00025495046FFF718FD064408F1010131E70B
:1099F00005222249F5E754F8042B07A98DF81C200D
:109A00000122CDE900354B46EBE707A954F8040BDA
:109A10000593FFF73EFBBBF1FF3F059B014608BFE7
:109A2000DDF81CB0CDE900355A464B46D9E7CDE903
:109A3000023561230122CDF8049000930A2354F8E3
:109A4000041B5046FFF744FDCEE70734059324F08E
:109A50000704F4E8020147F0B7F8059B00EE100A8E
:109A60004A4639465046CDE9005BFFF79FFEBBE70B
:109A7000304609B0BDE8F08FF07D0508F57D05089A
:109A80000EB403B503AA52F8041B0192FFF7DCFEE3
:109A900002B05DF804EB03B0704703781A060AD5EC
:109AA00003F07F034022134207D110F8012F02F088
:109AB000C001802905D01846704723EA02035208E6
:109AC000F1E702F03F0242EA8313EEE7421C104640
:109AD0000132037803F0C003802BF8D070470023D5
:109AE000814201D81846704711F8012D02F0C002DA
:109AF000802A18BF0133F3E701440346002099424E
:109B00001A4600D870471278013302F0C002802A4A
:109B100018BF0130F3E700007F289DBF024B185C9F
:109B2000C0F34000002070471D7E05087F289DBFC0
:109B3000024B185CC0F3C000002070471D7E050872
:109B40007F289DBF024B185CC0F380000020704747
:109B50001D7E05087F289DBF024B185CC0F3801056
:109B6000002070471D7E05087F2809D8064B1B5C26
:109B700013F00C0F06D1A0F15F0358425841704713
:109B800000207047012070471D7E05087F289DBF7B
:109B9000024B185CC0F30010002070471D7E0508C2
:109BA0007F289DBF024B185CC0F340100020704717
:109BB0001D7E050808B50246FFF7E8FF00B1203218
:109BC000104608BD08B50246FFF7EAFF00B1203A8B
:109BD000104608BD3038092884BF20F0200007381F
:109BE000704710B501440246E5240020914203D895
:109BF000B0FA80F0400917E012F8013B30B103F0F1
:109C0000C003802B11D10138C0B2EFE7BF2B09D9B7
:109C1000F72B09D8DB0803F0060344FA03F303F03B
:109C20000300E3E71B06E1D510BD0020FCE7023985
:109C300081420B4603D31A880239002AF8D0023336
:109C40001B1A5810704770B51C09944216D2121B8B
:109C500001EB440103F00F0315460E46012D31F8C8
:109C6000024B18BF3468013D24FA03F4A4B220F873
:109C7000024BF2D104B9013A104670BD0022FBE755
:109C8000F0B5059D0024521B2746A5420FD16D005B
:109C9000002344190D449A4214D104EB42031FB12E
:109CA0000121023324F81210181A4010F0BD31F8C7
:109CB000146033F814C066443E4420F81460370C36
:109CC0000134E2E735F813603E4424F81360370CA2
:109CD0000133E0E7F0B4049E0025921B2C46AE420F
:109CE0000AD17600002385190E449A420FD105EB64
:109CF0004201F0BCFFF79BBF31F815703C4433F8CC
:109D00001570E41B20F8154024140135E7E736F8F8
:109D100013100C4425F8134024140133E5E72DE912
:109D2000F043079C0239DDF828E0154684464FF6DB
:109D3000FF78A4EB0209DDE9087655B900EB420192
:109D40001FB10123023120F81230BDE8F043FFF7C4
:109D50006EBF31F8024F013D4444264405EB09042F
:109D6000AC4296BF33F8024B4FF6FF744444744440
:109D700086EA040E360C17FA8EF74FEA144E2CF8CA
:109D8000027B3F0CD9E7022938B538BF02210446CF
:109D900080680D4618B12368B1EB930F07D96900AD
:109DA000FEF78BFA2368A06065F39F03236038BD3C
:109DB00038B505460C20FEF765FA03782A78044684
:109DC00062F300036FF34103037028682368C0F354
:109DD0009D0060F39F03400023606B686360FEF7A3
:109DE00051FAA0602A68A968C2F39D0252001EF0D1
:109DF000BBFE204638BD4B0018441A4410B509B9C3
:109E0000084610BD30F8023D32F8024D1B1B002BF6
:109E100002DB04D10139F2E74FF0FF30F1E7012016
:109E2000EFE710B5044638B18068FEF753FA2046D4
:109E3000BDE81040FEF74EBA10BD38B50C46022101
:109E40000546FFF7A0FF002C2B78B6BF01220022A9
:109E5000644262F300032B7000236B6004B938BDC9
:109E6000D5E90132581C686022F81340240CF5E74C
:109E70000023C0E900338360704728B103789B0753
:109E800002D48068FEF726BA704738B505460C46FE
:109E90004968FFF778FF22782B78A86862F30003FF
:109EA0002B706368A1686B606268BDE8384052003F
:109EB0001EF05ABE034609B959607047FFF7BDBF8F
:109EC00008B5FFF7D5FFBDE80840FFF7F3BF30B492
:109ED000046862F39F040022046004F0FC0444F070
:109EE0000204C0E901210470194630BCFFF7E2BF4B
:109EF000F8B59DF818700421064614461D46FFF774
:109F000042FF97B1002C75F100030EDA62424FF068
:109F1000010065EB4503317860F3000131700021E9
:109F2000716052EA030104D1F8BD22462B4600209D
:109F3000F1E7D6E901104C1C746020F81120110CD7
:109F4000180C41EA034103460A46EAE72DE9F041CD
:109F500010EE106A03780746F20F62F300030370F5
:109F6000C6F30F4313F4FF4303D100237B60BDE826
:109F7000F081B3F5FF4FF8D0C6F3C753A3F17F04C8
:109F8000002CF2DB04D10121BDE8F041FFF755BF01
:109F9000B3F16F08C6F3160648BFA3F16008162C8C
:109FA00046F400064FEA281821DCC4F11704E64005
:109FB0000024254641463846FFF7E5FEC7F80480F1
:109FC00025B16A000021B8681EF012FE44B106FAFD
:109FD00004F2C4F11004BB68E64023F815200135F3
:109FE000A845C4D0BB6823F81560360CF7E7B3F179
:109FF000960504F1090448BFA3F1870504F00F0496
:10A000002D11D7E72DE9F8438F18C2F35B02044600
:10A010000D46511C9846089EFFF7B5FE2278002396
:10A0200029461FFA86FC68F3000263602270B94279
:10A03000084602D3401BBDE8F88302780131A2F143
:10A040003003092B05D9A2F14103192B14D8A2F131
:10A050003703B342EED2D4E901E0F0468146B8F1CD
:10A06000000F10D100EB4E0213B1023220F81E3067
:10A07000121A52106260DAE7A2F16103192BD9D8E3
:10A08000A2F15703E5E7B9F8002008F1FF3802FB19
:10A090000C3329F8023B1B0CE1E7F8B504461546E2
:10A0A0001E46C1B1531E4FF0FF371E44E900204643
:10A0B0000F310909FFF767FE237800216FF30003D2
:10A0C000616023704DB9D4E9011000EB4101FFF745
:10A0D000AEFD6060F8BD0127E8E700230F290ADC28
:10A0E0003278013D3E4402FA01F201F1080143EAEF
:10A0F00002039BB2F2D162681039501C6060A06804
:10A1000020F81230DEE70A46416838B5044609B93E
:10A11000506890B11378257803F0010305F0010031
:10A12000181A0AD15368994208D30AD89268A068CD
:10A13000FFF761FEEB0748BF404238BD4FF0FF30EC
:10A14000F8E70120F6E7884210B5044601D0FFF792
:10A150009CFE23786FF30003237010BD884210B576
:10A16000044601D0FFF791FE2378C3F30002C2F149
:10A17000010262F30003237010BD88421FB504463C
:10A1800001D0FFF782FE626862B901212046FFF725
:10A19000FAFD0123A26813806360237843F0010372
:10A1A000237010E02378D9070FD56FF30003A1685F
:10A1B000237001230846ADF80E3000930DF10E0315
:10A1C000FFF788FD606004B010BD511C2046FFF70A
:10A1D000DAFD0123D4E90121ADF80E3000930846E1
:10A1E0000DF10E03FFF74CFD6060D6E72DE9F04757
:10A1F0000E4649680546174601B12AB93146284638
:10A20000BDE8F047FFF741BE02F10F0424092144E5
:10A21000FFF7B9FD706817F00F0EA96804EB00078F
:10A22000B36808BF4FF0100E002207F1004803EB9F
:10A230004009CEF1100E08F1FF384FEA480801EB53
:10A24000080C0146E24611BB6FF0010322FA0EF240
:10A2500008F1020858430CEB00092CF8002004F127
:10A26000004203FB0493013A0233520018461EF0E9
:10A27000BFFC0346434417B133F8022D8AB12B7853
:10A280006F60327862F300032B70BDE8F08739F815
:10A29000023D01391A4322FA0EF312042AF8023958
:10A2A000D1E7013FE7E7F0B50E46496885B00546BE
:10A2B000144601B12AB931462846FFF7E6FD05B03C
:10A2C000F0BDFFF760FD2346A868D6E90121FFF73E
:10A2D000BAFC2B7868600246317861F300032B707A
:10A2E000DB07ECD5002321097768ADF80E309F42DB
:10A2F00001D08B420FD18F42E1D9B36804F00F0433
:10A3000033F81110012303FA04F4013C214213D065
:10A31000ADF80E3008E0B06830F8130050B10123FA
:10A320008F42ADF80E30E8D8A96801234AB90B80F6
:10A330006B60C4E70133DAE7BDF80E30002BBED006
:10A34000F2E7009308460DF10E03FFF799FC6860F1
:10A35000B5E773B553680C464968064615469942F9
:10A3600006D308D89268A068FFF745FD002802DAF6
:10A3700023462C461D4623782A7861685340DB0724
:10A3800013D401313046FFF7FEFC6B68B0680093D0
:10A39000AB68D4E90121FFF773FC33787060227851
:10A3A00062F30003337002B070BD3046FFF7EBFC80
:10A3B0006B68B0680093AB68D4E90121FFF78AFCB1
:10A3C000EBE7F7B553680C464968064615469942CF
:10A3D00006D328D89268A068FFF70DFD002822DA7E
:10A3E000234601272C461D4623782A78616853406E
:10A3F000DB071AD501313046FFF7C5FC6B68B06842
:10A400000093AB68D4E90121FFF73AFC7060237830
:10A4100003F001030FB183F00103327863F300020C
:10A42000327003B0F0BD0027DEE73046FFF7ABFC2B
:10A430006B68B0680093AB68D4E90121FFF74AFC70
:10A44000E4E72DE9F04F15464A680E4685B06B6883
:10A4500004469A423EBF0B462E461D46337871682D
:10A46000DB0721D42B7813F001071DD1FFF78BFCFC
:10A47000A068B6683B46D5E9011C99420BD100EBB8
:10A480004101FFF7D4FB237860606FF30003237072
:10A4900005B0BDE8F08F36F813203CF813502A4081
:10A4A00020F813200133E8E701312046FFF76BFC69
:10A4B000AB6832782F78009382EA070302F001023A
:10A4C00007F00107D6F804E0DB43A068C7F10008F5
:10A4D00003F0010381461FFA88F8C3F1000C1FFA4C
:10A4E0008CF1C2F1000C02911FFA8CF1F44601913B
:10A4F000B168A1F1020A6968A1EB0E010391BCF1F8
:10A50000000F15D100EB4E011BB10123023120F8E1
:10A510001E30FFF78CFB606033782A78C3F30003AA
:10A52000C2F300021340227863F300022270AFE707
:10A530003AF802BF0CF1FF3C019981EA0B0B039939
:10A540005A4401EB0C0BE34597BF0099C34631F821
:10A5500002BB88EA0B0B98BF009102995F4402EAA4
:10A56000070B3F0C120C8BEA010B13FA8BF329F843
:10A57000023B1B0CC3E72DE9F84F16464A680D460F
:10A58000044673689A423EBF0B4635461E462B78FA
:10A590006968DB072ED4327812F001082AD1FFF760
:10A5A000F2FBA9686D684246A768D6E9013CED1A3E
:10A5B000934210D15B00002219443B44954213D1D1
:10A5C00003EB4503DB1B5B10636023786FF3000331
:10A5D0002370BDE8F88F31F812003CF81260304368
:10A5E00027F812000132E3E731F8120023F81200D5
:10A5F0000132E3E701312046FFF7C5FB2F78696898
:10A600004FF0010907F00107AD68A068C7F1000825
:10A61000A5F1020E82460D461FFA88F8D6E90123FD
:10A620003678A2EB010B06F00106C6F1000C1FFA0A
:10A630008CFC45B900EB4101FFF7F9FA2378606023
:10A6400043F00103C4E73EF8022F013D88EA02020D
:10A6500017440BEB0502AA4296BF33F8022B624661
:10A660008CEA0202164447EA0602360C3F0CD2433B
:10A6700019FA82F22AF8022B4FEA1249D9E7F0B50B
:10A6800016464A680C4685B0736805469A423EBF36
:10A690000B4634461E462778616833785F4017F0D2
:10A6A00001073AD1FFF76FFB237813F0010328D19C
:10A6B000A2686468A868D6E90117641A994210D1A3
:10A6C000490000230A440144A34214D101EB430191
:10A6D000FFF7ADFA2B7868606FF300032B7005B0BD
:10A6E000F0BD32F8136037F813C086EA0C0620F884
:10A6F00013600133E2E732F8136021F8136001338D
:10A70000E2E7CDE9027701977368A8680093B36820
:10A71000D4E90121FFF703FBDCE70131FFF733FB4D
:10A720003378A868DB4303F0010303932378DB430A
:10A7300003F0010302930123019373680093B3684C
:10A74000D4E90121FFF7EBFA2B78686043F00103AD
:10A75000C4E74B682DE9F04F044685B00E46154618
:10A760000BB1536823B90023636005B0BDE8F08FD7
:10A77000814234D1FFF71CFBA5420646074600D1B3
:10A7800005466B68204671681944FFF7FCFA226899
:10A790000021A068C2F39D0252001EF029FAB3689E
:10A7A000A16800220193AB68D6F804A002936B68FD
:10A7B00001EB4A0C03938B1E0093134603989042BF
:10A7C00039D1636038462A7833785340227863F36E
:10A7D0000002227005B0BDE8F04FFFF722BB8242B5
:10A7E00004D1FFF7E5FA05460746CAE70027C8E7A0
:10A7F00038F8029F0EF1FF3E029899443BF8023B65
:10A8000030F8120000FB0393A8F800301B0CBEF1D7
:10A81000000FEDD1E6460CF1020813B1C646ACF8C4
:10A8200000300098AEEB010E0132C44602304FEA10
:10A830006E030090C2E7DDE9008BD6460023E6E711
:10A840004B6870B50646144613B11378DA0702D583
:10A850000023736070BD636823B90121BDE87040B7
:10A86000FFF7EBBA0846FFF7A3FA05462046FFF7C5
:10A870009FFA012104463046FFF7DFFA636883B18F
:10A88000A3681B88DB0704D52A4631463046FFF70C
:10A8900060FF0123D4E901210846FFF7D4F9606085
:10A8A00038B92846FFF7BDFA2046BDE87040FFF7EB
:10A8B000B8BA2A4629462846FFF74BFFDEE72DE9BE
:10A8C000F04F0C4651688FB0914601310546029316
:10A8D000FFF759FAD9F804200021A8680132520084
:10A8E0001EF086F9002320466B60D9F80410013170
:10A8F000FFF749FA49462046FFF7C7FA029B676807
:10A900005B68BB42019332D8029BD4F808B09E68C2
:10A91000AB6803932DD3324639465846FFF76BFA9E
:10A92000002823D10123039A606013806B60029A90
:10A9300099F8003012785340DB0714D52B7843F098
:10A9400001032B70636873B14FF0FF310BA8FFF761
:10A95000B7FA0BAA29462846FFF7FBFC029A2146C4
:10A960002046FFF7F6FC0FB0BDE8F08F01DA0023B8
:10A97000DCE7019B03F10040002301384FEA400A65
:10A9800036F8102012F4004F03F1010152D07A0082
:10A990004FF0000E9BB2791C02F102082BF817E071
:10A9A0000592DC46C3F11002D844774661600492F8
:10A9B000C44543D336F8100000FA03F20492019A1A
:10A9C000012A09D906EB0A00C3F1100730F8020C7E
:10A9D000F840049F074304970198059A091A0398C1
:10A9E0005A44696001F10041013900EB41010591D0
:10A9F0000AF102010991B11E0891D4F804A001994D
:10AA0000514527D30AF1004A0020C3F110060AF18C
:10AA1000FF3A0BEB4A0AD3457BD96FF000416B68D4
:10AA20002BB15A18039830F81220002A7BD06FF00F
:10AA300000417DE052000B4692B2A3E7BCF800E073
:10AA40000EFA03F21743049A2CF8027B2EFA02F74F
:10AA5000BFB2ADE7118832F8027C47EA014704999A
:10AA6000B7FBF1F70999511A06910899DDF818C05A
:10AA7000079100218E4662450CD81088091A0029DA
:10AA800041D10599023A21F8027905910AF1FF3185
:10AA90006160B2E7079EBCF8008036F8020F98406C
:10AAA000079640EA1E4E1FFA8EF07843404503D2C7
:10AAB000A8EB00068E420FD80144A1EB08081FFA4C
:10AAC00088F1C8F100060031B6B218BF012101EBD0
:10AAD00018412CF8026BCEE7761A0021B6B2F8E7DF
:10AAE00038F802CF0CFA03FC4CEA1E4EB6F800C050
:10AAF00010FA8EF0604426F8020B000CB242EFD838
:10AB0000091A013FBBE70020DDF82080069E86463B
:10AB1000F4E7BAF8002042FA03F1B240014390B2E0
:10AB20002AF8021977E7013B6B6078E7013B636025
:10AB30006368002B3FF4FBAE5A183BF81220002A42
:10AB4000F4D0F4E6F0B51F464B6885B006460C46D7
:10AB500015464BB11378DA0706D47B68012B07D171
:10AB6000BB681B88012B03D10023736005B0F0BDC7
:10AB700001213046FFF761F96B68002BF6D02046C3
:10AB8000FFF716F904462846FFF712F9054601A813
:10AB9000FFF76EF96B68B3B1AB681B88DB070AD5AA
:10ABA000224631463046FFF7D4FD3B463246314619
:10ABB00001A8FFF784FE0123D5E901210846FFF72C
:10ABC00042F8686048B901A8FFF757F92046FFF737
:10ABD00028F92846FFF725F9C8E7224621462046EE
:10ABE000FFF7B7FD3B462246214601A8FFF767FE67
:10ABF000D0E7D0E90121002301EB420210B59142D8
:10AC000005D30278D20748BF5B42184610BD32F820
:10AC1000024D44EA0343F2E730B5D0E901240023B2
:10AC200004EB4202944206D302780120D20748BFC7
:10AC30005B420B6030BDB3F5004F04D232F8025DC9
:10AC400045EA0343EEE70020F4E72DE9F0438846A8
:10AC500061B19F1800254FF001091A44AC46D0E9B4
:10AC60000114A4F1020E19B9BDE8F0831F46F1E703
:10AC70003EF8024F0CF1100C44EA0545BCF1070FF9
:10AC800001DC0139EFE70678ACB2F60741BFE443D7
:10AC900059FA84F4A4B24FEA1429E4B2B8F1000FCF
:10ACA00009D07E1E07F8014CB342DDD0ACF1080C90
:10ACB0002D0A3746E2E73E4606F8014B9642F4E796
:10ACC000D0E901329FED0C0A02EB43039FED0B7AB2
:10ACD0009A4205D30378DB0748BFB1EE400A7047BC
:10ACE00033F8021D07EE901AF8EEE77AE0EE077AE5
:10ACF000B0EE670AECE700BF0000000000008047EC
:10AD00002DE9F84F44688046894616469B469DF8D3
:10AD100028A00B9D9CB982B1561E2B4616F8012F18
:10AD200018463AB930230370002300F8013F401B56
:10AD3000BDE8F88F03F8012BF0E72846F2E764003E
:10AD4000ABF13A0B2046FDF79DFA07462246D8F8AC
:10AD500008101DF009FF28462A4607EB040CACF149
:10AD6000020300219F421C4633D9303114463B4632
:10AD7000392988BF594404F8011B9C45194632D82B
:10AD8000BAF1000F08D00123211A032902BF941C35
:10AD900082F801A02046D3B13846FDF79BFA3EB1B8
:10ADA00030461DF06DFF23463044B0421C4623D888
:10ADB00098F80030DB0744BF2D2304F8013B2B46F5
:10ADC000621E9A421DD80023601B2370B0E7224602
:10ADD000C5E7248844EA0141B1FBF9F423F80249AC
:10ADE00009FB1411BEE7098802330029C5D0BAF166
:10ADF000000FECD00023C7E710F8012D03F8012B5A
:10AE0000D3E71978107803F8010B02F80119D8E795
:10AE1000D0E9023293423DBF5A1C826018784FF04D
:10AE2000FF307047036810B5044613B14068FDF762
:10AE300051FA2046BDE81040FDF74CBAF8B50C4673
:10AE40001F46164605461020FDF71CFA054B846088
:10AE5000C0E900743444C4606B60034B2860AB608D
:10AE6000F8BD00BF11AE000825AE00080369272B0E
:10AE70001DD0222B1BD0752B03D023F01002622A89
:10AE800010D14269272A12D0222A10D0722B09D160
:10AE9000622A0ED18069272809D0A0F122035842E6
:10AEA00058417047622B04D14369722BF1E70120AE
:10AEB00070470020704702690A2A10B5044622D163
:10AEC000C3690133C3610123236263692361A369F9
:10AED0006361D4E9010398476369A0610D2B07D131
:10AEE0000A239842636103D1D4E901039847A06122
:10AEF000A369013306D163695A1C03D00A2B1CBF16
:10AF00000A23A36110BD036A092A04BF073323F093
:10AF100007030133D8E770B504460E4600252069C3
:10AF2000431C01D1284670BD0A2808D116B1A36A76
:10AF3000002BF7D020460125FFF7BDFFEFE7FEF716
:10AF4000EBFD18B12046FFF7B6FFE8E72369232B96
:10AF500008D12046FFF7AFFF23695A1CDFD00A2B28
:10AF6000F7D1DCE75C2BDDD163690A2BDAD120460F
:10AF7000FFF7A1FFE6E700002DE9F74F00210446A7
:10AF80008164FFF7C8FFE369256AA363636AE56329
:10AF9000002B04DA062284F84020013304E007D0B5
:10AFA0000522013B84F84020636203B0BDE8F08FC6
:10AFB00090B3A36A83BB0423013DD4E90C2084F839
:10AFC00040306FF00043D11830F811108D42ECD0B2
:10AFD00017D9E16A8A4207D308314900FDF76DF9B4
:10AFE000E36A60630833E362D4E90C32591C2163DD
:10AFF00022F81350636AD0E7013A2263626A013A89
:10B000006262226BD11830F811108D42F4D3CCD08B
:10B01000022384F84030C8E72169481C01D100238D
:10B02000F7E72046FFF722FF8146002800F03D8128
:10B03000002384F840302369752B5CD0622B4FD1FC
:10B040006369722B4FF00B030DBF4F46002701259C
:10B05000022594F84020002A55D184F840303DB1B3
:10B060002046FFF728FF022D02D12046FFF723FFDD
:10B0700023692046222B14BF4FF027084FF02208E7
:10B08000FFF719FF2369434540D1636998453DD1D6
:10B0900020460326FFF70FFF2046FFF70CFF4FF077
:10B0A000000A04F14405D4F810B0BBF1FF3F00F0F2
:10B0B000F680012E03D1BBF10A0F00F0F080B245FB
:10B0C00026D3514604F14400FEF776F901212046CB
:10B0D000FFF721FF2046FFF7C9FE0028ABD164E748
:10B0E000722B0CD163694F46622B15BF01250225D7
:10B0F0000A230B23ADE701250A230027A9E7002532
:10B100000A232F46A5E79A42A9D04EE70126C6E7B3
:10B11000D84509D1414628460AF1010AFEF7F7F859
:10B120002046FFF7C8FEBEE7BBF15C0F40F0AC80E5
:10B130002046FFF7C0FED4F810A02FB15C212846AE
:10B14000FEF7E5F8D34665E0BAF1620F00F08580BE
:10B1500027D8BAF14E0F6ED010D8BAF1220F1ED0F8
:10B16000BAF1270F1BD0BAF10A0F61D0AAF1300B48
:10B17000BBF1070FE2D84FF0030A66E0BAF15C0FAB
:10B180000DD0BAF1610F6BD0BAF1550FEED194F832
:10B1900040200B2A1FD15C212846FEF7B8F8D34681
:10B1A0003EE0BAF1740F5ED00BD8BAF16E0F5DD0ED
:10B1B000BAF1720F5DD0BAF1660FD7D14FF00C0B18
:10B1C0002EE0BAF1760F57D0E1D3BAF1780FCDD196
:10B1D0004FF0020A06E0BAF1750F0CBF4FF0040AF7
:10B1E0004FF0080A4FF0000B11E02046FFF763FE16
:10B1F000226910460192FEF7ADFC002800F0618143
:10B20000019A4FEA0B1B1046FEF7E4FC83441AF147
:10B21000FF3AEAD2BBF1FF3F0AD0AD4B9B4539D88C
:10B2200094F840300A2B2AD159462846FEF76FF889
:10B230004FF0000A74E7A7480AF03CF92046FFF7F0
:10B240003AFE2269303A02EBCB0B6269303A072AA8
:10B25000E0D8BAF1010AF1D1DCE74FF0080BDFE7E3
:10B260004FF0070BDCE74FF0090BD9E74FF00A0B63
:10B27000D6E74FF00D0BD3E74FF00B0BD0E7BBF148
:10B28000FF0F07D80B2B05D15FFA8BF12846FEF78D
:10B2900037F8CDE74FF0010384F84030C8E7B245F6
:10B2A0003CBF032284F840200BE70846FEF73EFC33
:10B2B000054620691DB95F2801D07F283ED90723A4
:10B2C00004F14405C1B284F840302846FEF718F86E
:10B2D0002046FFF7F0FD2069421C1BD128467E4E18
:10B2E000FDF7FFFF0025074656F8041B38461DF002
:10B2F000D5FC00281CD10D35EDB2102D84F840503E
:10B300007FF453AE754BD3F8FC31002B0CBF0F23E9
:10B310000D237EE6FEF70AFC40B920695F2805D0C0
:10B320007F2803D8FEF70CFC0028D7D0217CCCE77F
:10B33000FFF63BAE0135242DD6D136E6FEF700FCF4
:10B3400068B321692E2935D1092384F8403004F1EE
:10B35000440609273046FDF7DAFF2046FFF7ABFD2C
:10B360002069431C3FF421AE002D35D120F020038D
:10B37000452B31D16521304684F84070FDF7C7FF79
:10B380002046FFF798FD21692B2901D02D29E7D10F
:10B390003046FDF7BCFF2046FFF78DFDE0E723694F
:10B3A0002E2B04D16069FEF7CBFB0028C9D1002603
:10B3B0004B4D31E00823302984F84030C7D165690E
:10B3C00045F02005A5F16203162B97BF454D0025DA
:10B3D000DD4005F00105BAE7FEF7A8FB28B12169B9
:10B3E0002E290DD184F84070D2E72069FEF7A8FB22
:10B3F0000028F4D123692E2BF1D05F2BCBD0D4E5DC
:10B4000021F020034A2BC3D1ECE7652F01D0632F35
:10B4100000D10135013601352F7817B12369BB42C0
:10B42000F3D12046FFF747FD0FB90123F1E5212FA6
:10B4300007D123693D2BF8D12046FFF73CFD43237C
:10B44000E7E52E2F0FD123692E2B02D163692E2B16
:10B4500001D04C23DDE52046FFF72DFD2046FFF708
:10B460002AFD0C23D5E50335334615F8027C632FFE
:10B470000FD0652F0DD01C4AD35C03F0FD0284F879
:10B480004030442A01D0482B13D1A36A0133A36270
:10B490008BE515F8012C01362169914207D1204630
:10B4A000FFF709FD3346652FE5D00235DDE7632F51
:10B4B000FAE7452A02D0492B7FF477ADA36A013B16
:10B4C000E5E74FF00103834684F84030A8E600BF6B
:10B4D000FFFF1000DE7E0508887F0508E8340020A5
:10B4E0009D7E0508012040005C7F05087FB501AD09
:10B4F0000646542085E80E00FCF7C4FE04460346C9
:10B5000095E8070043F8046B002583E80700012352
:10B510006FF001021420C4E907320A22C4E9095578
:10B52000C4E90B23FCF7AEFE2021606304F1440064
:10B53000FDF75FFE636B20461D802561C4E905555C
:10B54000FFF7B9FC2046FFF7B6FC2046FFF7B3FC37
:10B550002046FFF711FDE36B2046012B1CBF05239E
:10B5600084F8403004B070BD30B585B0054601ACFC
:10B570002046FFF763FC284694E80E00FFF7B6FF6D
:10B5800005B030BD30B585B00546014601AC20465A
:10B590001CF08EFC2846FDF763FD94E80E00FFF7D3
:10B5A000A5FF05B030BD10B5044670B1C368406852
:10B5B000984704F14400FDF74BFE606BFCF78AFEF0
:10B5C0002046BDE81040FCF785BE10BDD0E904322E
:10B5D000013B036152F823007047C1F17F510369B9
:10B5E00001F57F1101F57F513F311944436953F84B
:10B5F00021007047F8B5446A06460D46B4B1D4E957
:10B6000000030B44834222D9083100220144204622
:10B61000FCF75EFE0246B8B9616820460831FCF7C7
:10B6200057FE63682360336A63603462802D2F465F
:10B6300038BF802707F10800FCF724FE00230760CD
:10B6400004464360706202E023682B442360606814
:10B650000834054444F8045C2044F8BD38B50D4670
:10B660000446D0E903138B4208D3103140698900A6
:10B67000FCF723FEE36860611033E360D4E9043231
:10B68000591C216142F8235038BDF8B50D461F46BC
:10B6900004461646D0E900138B4208D31031806867
:10B6A000C900FCF70AFE2168A06010312160D4E9CE
:10B6B00001104B1C636000EBC10350F8312065F3AF
:10B6C000170240F83120DE705F60F8BD10B4846965
:10B6D000CAB20023A16B5DF8044BFFF7D6BF000090
:10B6E000F7B586690F46054696F8401007291FD121
:10B6F000D6E91210FDF72CFC8E2F04460ED18100E6
:10B70000002205F1280041F002010AF085F928B174
:10B710004468E30720D544F0010002E0200140F036
:10B7200002000146284603B0BDE8F040FFF796BF8F
:10B73000082907D133460022D6E9121008F0FEF896
:10B740000446E6E7092912D1009600230122D6E932
:10B75000121008F071F904460C212846B66BFFF769
:10B7600049FF40F239130660C0E90134D9E7A1F17D
:10B770000A03012B1CD8D6E912100A290BD8FDF7B1
:10B78000E7FB96F8403048B10A2B0CBF06210A218E
:10B7900041EA0010C5E7FDF7ABFBF2E7064C0748AE
:10B7A000D6E912210A2B08BF20460FF0E7FCD2E7AA
:10B7B000090141F00E00B4E798BB0508BCB80508C4
:10B7C000DE2807D010F0010306D043080CBF01208B
:10B7D000002070470120704718467047FE2807D0A8
:10B7E00010F0010306D0430814BF01200020704769
:10B7F000012070471846704710F0010204D040F055
:10B800000100086001207047A8B110F003030FD1B8
:10B810000279392A0ED1836813F001000B600AD136
:10B820009A0708D11868044BC31A58425841704708
:10B83000104670471846704708AB05082C2A2DE9BA
:10B84000F04F044685B0884616461D460BD10021B0
:10B85000FFF7C3FE88B3810702D10379902B2CD068
:10B8600005B0BDE8F08FA2F11D03012B54D82F467F
:10B870002A460AE01D2E42D1FFF7B0FFB0B90846B4
:10B88000FFF79EFF002808BF4A4602F1FF396FB15B
:10B89000013F20463946FFF7A0FE23690146A3EB8E
:10B8A000020C636943F82C00002FE3D10021894585
:10B8B0002DD1A5EB0905012DD2D0A6F12203022B33
:10B8C00055D8691E2046FFF788FE01A9FFF794FFAF
:10B8D000002879D0222E37D0232E0CBF4FF0160926
:10B8E0004FF01709AF1E002F31DA002D40F05A81BA
:10B8F000019EF30740F15B8146F001011EE0FFF776
:10B900005FFF0028D2D10846FFF768FFBAE720465C
:10B91000FFF75CFE0131CAE71F2ACED10021FFF7F5
:10B920005CFE0246FFF74CFF60B91046FFF756FF7A
:10B930000028C2D0DE212046FFF748FE2046FFF750
:10B940008DFE8DE7FE21F6E74FF01509CAE739466F
:10B950002046FFF742FE02A9FFF74EFFA0B348467C
:10B96000013FDDE9011209F0CBFB0190BBE7A6F135
:10B970002503022B4BD8691E2046FFF72EFE01A996
:10B98000FFF73AFF00B3AF1EDFF848A2002FACDD8F
:10B99000791E2046FFF721FE02A9FFF72DFF98B17F
:10B9A00039462046FFF719FEC0F30710504410F83F
:10B9B000319CB9F1FF0F07D002980DF0BCFBB9F133
:10B9C000190F17D800281ADAA91C46EA05262046BE
:10B9D0008900FFF70FFE4660014600F10806C0F837
:10B9E0000080002DAAD0013D2046FFF7EFFD46F86C
:10B9F0002500F6E7B9F11C0F01D90028E4D048462C
:10BA0000023FDDE9011209F07BFB0190BEE7282E21
:10BA10001BD100212046FFF7E0FD01A9FFF7ECFE56
:10BA20000028D1D001212046FFF7D7FDC0F3071031
:10BA3000312808D032280CBF01200220019908F0DB
:10BA400043FD019051E70020F8E7052E68D1002161
:10BA50002046FFF7C2FD07460028B5D010F0030AC4
:10BA600004D1436803F0FE03562BADD001212046DC
:10BA7000FFF7B3FD00F00F03022BA5D1BAF1000FC1
:10BA8000A2D13B792B2B9FD1BB6803F00F02022A76
:10BA90009AD11B09482B97D1FB68002B94D09A07A9
:10BAA00092D11A792F2A8FD1D3F808B04FEA101902
:10BAB00002A95846FFF7A0FE68B9424942480CF077
:10BAC000ABF9A169054653463A6809680CF06EFA6D
:10BAD0002846FCF7B1FB4FEA8901012204F1280056
:10BAE00041F0020109F098FF029B43604846FDF7D0
:10BAF000CBFA037820465F2B0BD1FFF767FD20467A
:10BB0000FFF764FD0023082220461946FFF796FE42
:10BB1000A6E6FFF75BFD59462046FFF79FFD53E77A
:10BB20002B2E7FF451AF01212046FFF756FD00F088
:10BB30000F030746022B7FF447AF00212046FFF793
:10BB40004CFD00283FF440AF10F003027FF43CAFFF
:10BB50000379312B7FF438AF3909D0F808901B48AE
:10BB6000890041F0020109F057FF00283FF42CAF93
:10BB700002AA4FEA1911406808F0DEFD029B002B73
:10BB80003FF422AFD90707D49A077FF41DAF196895
:10BB90000F4A91427FF418AF039A002A7FF414AF42
:10BBA0000193A2E62046013DFFF710FD9DE60C2122
:10BBB0002046FFF71FFD40F2391301460560C0E93A
:10BBC0000136BBE6A38005082CA4050818800508EB
:10BBD00008AB050897850508036830B513B9184602
:10BBE000136030BD9C0702D010600120F9E75C684B
:10BBF000E5B28D42F8D10833200A1360F1E7000066
:10BC00002DE9F04F93B0002440230F4602904FF4EB
:10BC100000700192CDE90534FCF734FB2023079036
:10BC20008020CDE90834FCF72DFB2146CDE90A0739
:10BC30000FA8CDE90D4409F0B5FE019B002B4BD0B8
:10BC4000022B0CBF3C2222464FF00008DFF8C8B29E
:10BC50000023B96B05A8FFF718FD069C002C00F027
:10BC60005D81013C079BA74D03EBC40253F83430C0
:10BC70000694D678C3F3170AA34B652E52689B5DD2
:10BC80000093A24B9B5D88BF43F4807305EB430593
:10BC9000009B03F00F0903F03003102B1ED0202B64
:10BCA00050D0B8F1000F00F00381B9F1020F40F05D
:10BCB000F280012A17D000210098531EC00706D534
:10BCC00068880BEA0000B0F5805F08BF5308012BBD
:10BCD00040F0DF8069B1DCE03A22B5E732B905EB2C
:10BCE0004205914508D84FF00108B6E7B8F1000FBA
:10BCF000F5D14FF00008B0E7A84635F8023B03EA5B
:10BD00000B01B1F5805F0DD197F84010C3F30B0321
:10BD1000994215D105A83146FFF7E2FC3846FFF7F6
:10BD20002BF9E6E7531C4B4504D23246514605A891
:10BD3000FFF7ABFCB8F8001005A8FFF7C7FCD8E781
:10BD40000132CEE7B8F1000F0FD002F10043013B02
:10BD500035F813300BEA0303B3F5405F1BD1002124
:10BD600005A80392FFF77AFC039A05EB420491457C
:10BD700025D8019B0BB1052E43D0002405EB4909C2
:10BD800022464D455BD1012A7AD1009B5B0677D5CF
:10BD9000002529466EE0012AA5D997F84030052BE9
:10BDA00040F0EB805A495B480CF036F8044600231B
:10BDB000BA6B39680CF0FAF82046FCF73DFAA04659
:10BDC00034F8023B03EA0B01B1F5805F17D1DBB217
:10BDD00097F8401099420ED1072905D1314605A8A0
:10BDE0000392FFF77DFC039A38460392FFF7C4F8ED
:10BDF000039A0132BBE7002A3FF475AFCDE7531C2D
:10BE000093E7002105A8FFF7E8FB0028B5D1012141
:10BE100005A8FFF7E2FB820700F0B68000F00F00F4
:10BE20000228AAD005A8FFF7D1FB05A8FFF7CEFB93
:10BE300000230822514605A8FFF700FD59E739F80D
:10BE4000023D03EA0B01B1F5805F05D1DBB2072BA0
:10BE500097D10134013294E7214605A8FFF7BDFBD5
:10BE600000B1013201348CE7FFF7B0FB0135002847
:10BE700018BF0146A54205A8F6D1FFF7EFFB38E74A
:10BE8000009B1D0604D50134002105A8FFF7E6FB41
:10BE900023463246CEE7012A3FF425AF12F00101D6
:10BEA0003FF40AAFB9F1030F7FF477AF012103E745
:10BEB00009EA020303F0010335F8134004EA0B0119
:10BEC000B1F5805F13D1C4F30B0497F84010A14281
:10BED00002F1010409D11BB9314605A8FFF700FCA6
:10BEE0003846FFF749F82246E2E72246DDE6531CD2
:10BEF000514605A83246FFF7C8FB214605A8FFF7C3
:10BF0000E5FBAAE66E810508BF800508E884050800
:10BF10005480050820A1050800F0FFFF0FA809F0D4
:10BF20005AFD0E9850B1416822460831FCF7D0F90D
:10BF30000E9B5A681A600D9A5A600D9397F840301C
:10BF4000002B7FF42AAF099B002B3FF426AF0A9BFE
:10BF500007981B680C93FCF7BDF90A98FCF7BAF92F
:10BF60003846FFF720FB0CAB93E80300029B83E805
:10BF70000300184613B0BDE8F08F022B01D106492B
:10BF800011E7064906480FE700283FF4F6AE0379AB
:10BF9000392B3FF447AFF0E666800508948005082A
:10BFA0002CA40508406810B500B910BD4468FCF722
:10BFB00091F92046F8E700002DE9F04105463020D0
:10BFC0000E4690461F46FCF776F9072D044605708D
:10BFD000C660A0F8148001D0012D10D1B368C3F35E
:10BFE0000F13E38207F07EFE042320612020678385
:10BFF0002385FCF747F9E0622046BDE8F081014B5C
:10C000005B5DEEE7A285050810B50446C06AFCF743
:10C0100061F92046BDE81040FCF75CB930B500225C
:10C02000448D944202D80023184630BDC36A03EB06
:10C03000C2035D688D42F7D00132F2E770B5044665
:10C040000D461646FFF7EAFFC0B9218D638D8B427E
:10C0500008D30631E06AC900FCF72FF9238DE062AE
:10C0600006332385638DE26A591C02EBC3006185A8
:10C0700002F83360002345604370438070BD43681D
:10C080000BB9FFF7CBBF1846F9E7F8B544680F4680
:10C090002CB9F8BD032BFCD104230370F9E7234628
:10C0A0005D68002DF5D07E6818463146FFF7B6FF73
:10C0B0002B460028F4D00378033B022BE9D8052354
:10C0C0001D463B70002231462046FFF7B7FF03783C
:10C0D000002BDFD105706468F4E7436A5B8B012BAA
:10C0E0001EBF03695B1803617047C36A10B504463D
:10C0F000DB6F806A9847A38B626A0133D18C9BB255
:10C100009942A38338BFD38410BD838B013B10B504
:10C1100083830446C36A806AD3F8843098472046F4
:10C120000121BDE81040FFF7D8BF2DE9F04180465E
:10C130001F4659B111F0030510D14E68F3B2934276
:10C140000CD1360A01F10804B54201DBBDE8F081EB
:10C1500054F8041B4046B8470135F5E740463B46D6
:10C16000BDE8F04118472DE9F04F044685B00D4673
:10C1700091469A461BB10B8B43F008030B83636A0D
:10C18000A5F820901A8B42F030021A831B78002BFE
:10C1900049D1E36A4A462946A06AD3F8B4605346B7
:10C1A000B44605B0BDE8F04F6047DB6A03EBC60B51
:10C1B00013F83630043B012B20D8002319E0EB6A3A
:10C1C000039A039903EBC20213F83130052B0ED109
:10C1D000DBF804105368994209D1E36A08F10108B9
:10C1E000BBF802205B69A06A1F460023B847039B87
:10C1F00001330393039A6B8D9342E0DC0136636A4B
:10C200005A8DB242D1DCB8F1000FC2D0E36A424687
:10C21000CDF800A02946D3F8B8604B46A06AB047D5
:10C2200005B0BDE8F08F0026B046E8E7F8B50F4648
:10C2300011461A4600230446857946698371436195
:10C240000E4BFFF772FFA368BBB9E18A51B1A28A16
:10C2500042B9E36AA06AD3F8A0309847E36AA06ABB
:10C260005B6C9847A38A3946E28A2046FFF77BFF3A
:10C270000035666118BF0125A571F8BDDDD900083C
:10C28000024B9B228968FFF750BF00BFFDE6000804
:10C29000024B6A228968FFF748BF00BF2BCA00081B
:10C2A000C36A002110B50446D3F88830806A9847E5
:10C2B000E36AA06A0E215B6B9847E36AA06A0121DA
:10C2C000D3F8CC30984720460321BDE81040FFF753
:10C2D00004BF38B5C36A04460022806A9B6C984745
:10C2E000E36AA06AD3F8C05000231A461946A8474B
:10C2F0002046BDE83840FFF7D3BFC36A00228968F3
:10C300005B6D0909806A1847C36A89681B6C806A7B
:10C31000184710B50446084611462268FFF74CFE40
:10C32000636A436000238360236A13B9206210BDEF
:10C3300013469A68002AFBD19860F8E770B54379F4
:10C3400005460C46012B06D1436A0A4602215B8B47
:10C35000FFF7DFFF2061A268284621694B23BDE873
:10C360007040FFF763BF70B51346427906460C462E
:10C37000012A04D10A460721FFF7CBFFA061A56976
:10C3800030464323E2682946FFF750FFE88A70BD34
:10C390002DE9F04F87B006460C4600AF11B90121D8
:10C3A000116015E011F003081BD10B79672B07D141
:10C3B000CB681B0913608C68002CF0D04FF001088B
:10C3C00004F00F03022B0FD12109B8F1000FE7D0C1
:10C3D000F36A0022B06A1B6B98471C37BD46BDE864
:10C3E000F08F4FF00008EBE7B8F1000F02D1A3681F
:10C3F0001B091360636800254FEA132904F1080341
:10C4000009F1FF3A9B46FB604D4527DB0AF1070324
:10C410004FF0000B23F00703ADEB030D6D46C7F89B
:10C4200008D0CB4522DB5146B868FCF791FDF36A92
:10C43000014600221B6BB06A9847B8F1000FCCD0C0
:10C440000C3401254D45C8DA54F8041B0022F36A68
:10C4500001350909B06A5B6D9847F3E75BF8040B97
:10C4600001350009FCF70BFE8244CDE7BBF1000F5C
:10C4700003D04FF02E0305F8013BFB6807F11401D0
:10C480000BF1010B53F8040B0009FB60FCF701FEF4
:10C490007B69014628461A467B601CF065FB7B6879
:10C4A0001D44BEE731B101F003030268134304BF2A
:10C4B0000B6803607047000038B5836804460D467A
:10C4C0005BB9114605480BF0A7FC2946A06004F1B2
:10C4D0000C00BDE83840FFF7E5BF38BD2CA40508C7
:10C4E0002DE9F04F04460D468DB0164662712B784B
:10C4F00061620021072B016105D0834AFFF7DCFF51
:10C500000DB0BDE8F08F012A06D0436B00F10802A0
:10C510003146006B1B6898476379D5F80C80032B74
:10C5200010D10BAA432108F10C00FFF755FB636BF8
:10C5300001460B9A9B68206B9847A368A883002B41
:10C5400040F0B080D8F81010C1B101F00F05022DF5
:10C5500010D10B095E2B12D004D83E2B3AD06B4A77
:10C560002046CBE7752B37D040F2E2529342F6D10A
:10C57000032504E0664A2046FFF79EFF0225D8F80F
:10C5800014304FF000090AAA192109A80993FFF7EE
:10C5900023FB0690069B994520DB6379012B15D977
:10C5A000636B2946206B5B6898476379042B0DD138
:10C5B0000023606A03950293226B818BCDE90031E1
:10C5C00005210069D2E9023207F0A3FBA368002B22
:10C5D00068D195E70125D2E70025D0E70A9B4FEA0D
:10C5E000890B53F829100B79082B02D109F10109A5
:10C5F000D0E7052B01D0474AB2E7CB68002BFAD130
:10C600008B681A792B2AF6D19F6807F00F02022A4D
:10C61000F1D1DB680593002BEDD09A07EBD11B79A4
:10C620002F2BE8D1059B0BAAA3213F0903F108009A
:10C63000FFF7D2FA40F2D54382469F421BD1012830
:10C6400005D10B9A136803F00F03022B04D0324A72
:10C650000A9B53F80B1083E72169012E01F10103B6
:10C6600023611AD01268636B1209206BDB6898474C
:10C6700098B92A4AECE740F201439F4216D10128BB
:10C6800003D10B9B1968CF0701D4254AE0E7012E9F
:10C6900003D04910206B03F0F4F9A368002BA5D058
:10C6A000DDF81480D8F80030E36029E740F24C430D
:10C6B0009F421DD1012803DD0B9B1B68D80701D4C5
:10C6C000184AC5E7012EE8D05B1001270B9A52F8F3
:10C6D0002720D10701D4144ABAE70137194652106E
:10C6E000206B079303F0D4F9BA45079BEED1D4E74A
:10C6F000012ED2D0636B02463946206BD3F810B0BE
:10C700000B9BD847C9E700BF96880508BA8805087B
:10C71000C7880508EF880508128905082E890508CD
:10C720003E8905085A8905087F890508014AFFF7EF
:10C73000C3BE00BFA18905080B79092B4FF6FF7313
:10C7400070B508BF058B044616BF458B074A084ADB
:10C750009D4201D1FFF7B0FEA18BE28BE36A8A1AFA
:10C76000A06A29469B6FBDE870401847838605087C
:10C770009886050838B50546A9B101F00F03022BCC
:10C780000DD10C09204609F00DF8002806DA2246E2
:10C79000064907480BF06EFBA860002038BD054A2B
:10C7A000FFF78AFEF9E70846F8E700BF698A05083F
:10C7B00058A50508CE8805082DE9F8430546406AC6
:10C7C00017460E46028B12F0020C06D0314A314653
:10C7D0002846BDE8F843FFF76FBE01F00F010229BC
:10C7E00017D1AC79310984B1C38B64460133C3835B
:10C7F0004FF0010800294BD00022FFF71FFC0378FF
:10C800008146002B2FD0244AE1E7838B01338383B9
:10C81000EEE731793446B94208D1B168AB790909FC
:10C82000002BF2D0C38B0133C383E1E7994212D1CD
:10C83000AC79002CCAD10123AB71B16841B31A4362
:10C8400001F00F034FF00308022B02831CBF0C46BC
:10C85000A1680909CEE7B16842F002024FF005086D
:10C8600009090283C6E7032380F8018003706B6A1D
:10C870005B8B032B0CD1452F0AD14CB1E1682846C4
:10C88000FFF778FF99F8013043EA001089F80100BA
:10C89000BDE8F88394800508818805084E234D2261
:10C8A000FFF78ABF46234522FFF786BF10B44279BF
:10C8B0000B46446A012A04D120465DF8044BFFF779
:10C8C000BDBBC16A2246806A14315DF8044B02F098
:10C8D0000FBC10B444790B46426A012C04D11046B7
:10C8E0005DF8044B02F0F6BBC16A5DF8044B1C31E5
:10C8F000806A02F0FDBB436A10B504465A8BFFF70D
:10C9000032FD01462046BDE81040FFF7E2BF2DE9A9
:10C91000F3418D6804460E4605F00F030E2B06D03A
:10C92000002D43D0AB0741D12B79642B30D100953A
:10C93000002501AA64216846FFF74EF90023019AF9
:10C9400040F2CE4C1946834228DBF76840F23E3273
:10C95000E36A9742A06A9B6B2AD19847E36A052154
:10C96000A06ADB6B9847E36A00220121D3F8A0306C
:10C97000A06A984701AA29462046FFF709FDE36A05
:10C98000022200211B6BA06A984702B0BDE8F0812B
:10C99000612B0BD1AB680093ED68CAE752F82370A6
:10C9A000013367450CBF01310331CCE70021CCE7EF
:10C9B000984706F10C006A466921FFF70DF9002639
:10C9C0000746BE42D4E90A0311DBD3F8A0300022A7
:10C9D000394698472946002501AA2046FFF7D8FC8A
:10C9E000BD42D4E90A030BDB1B6E9847CDE7009AE2
:10C9F000DB6B52F826200136916809099847E0E779
:10CA0000009A1B6B52F825800122D8F8086036097D
:10CA100031469847D8F80C1029B9314620460135DF
:10CA2000FFF757FFDCE70909F8E7C36A37B50446A3
:10CA30000D469B6B0021806A9847E36AA06A0E212D
:10CA40005B6B984701AA29462046FFF7A1FC019994
:10CA50002046FFF73EFF03B030BD10B444790B46CB
:10CA6000426A012C04D110465DF8044B02F032BB3F
:10CA7000C16A5DF8044B2431806A02F039BB0000C2
:10CA800037B504460D46A9B1CA0705D5C36A491092
:10CA90009B6BA06A98470DE08B0730D001F00F0523
:10CAA0000B09062D08D00A2D0CD0022D1FD11946D6
:10CAB000FFF7FCFE03B030BDC26A1946806AD26B34
:10CAC0009047F7E74279042A03D0C36A12491B6CE6
:10CAD000DFE701A91846FCF7DCFAE36AA46A0199CA
:10CAE0001D6C0EF0D5FD01462046A847E2E7042B59
:10CAF000E0D0C26AD9B2806A526B9047DAE7C36A63
:10CB000009681B69806A98472A79044B29462046A0
:10CB100053F82230BEE700BFB0B00508FC86050818
:10CB20002DE9F14F0D4604461646A90712D005F02F
:10CB30000F03022B17D129090AB1022A05D1204679
:10CB400001B0BDE8F04FFFF7C4BE01B0BDE8F04F43
:10CB5000FFF7ACBE6968CBB22C2B7BD00BD8062B71
:10CB60000DD02B2B12D0554A2946204601B0BDE8E6
:10CB7000F04FFFF7A1BC2D2B7DD09B2BF3D1002EC6
:10CB8000F1D105F108030A0A002187E0022A02D048
:10CB9000A968FFF775FFEF68002FE4D017F00309CD
:10CBA000E1D17B68B846DAB28C2A0DD1022E4FEA69
:10CBB000132805D007F1080A08F1FF3BD94511DB1E
:10CBC00008F1010857F8288098F80430302B24D158
:10CBD000022E0FD1E36AA06A9B6E9847E36A1B6D31
:10CBE000012115E05AF8041B2046FFF749FF09F11F
:10CBF0000109E3E7D8F808102046FFF741FF012EAE
:10CC0000E36AECD1DB6DA06A9847E36A00211B6DF3
:10CC1000A06A01B0BDE8F04F1847312BA3D1012E17
:10CC2000D4E90A030CD19B6D9847E36AD8F8081041
:10CC300000225B6D0909A06A01B0BDE8F04F1847FA
:10CC4000022E01D15B6E9847E36A0122D8F80810E2
:10CC50005B6DEFE7A868002885D0002A83D1C16802
:10CC600039B311F0030324D14A68D6B2932E17D1F9
:10CC70001A46816812E0002A7FF475AFA96829B9C5
:10CC80000B4601B0BDE8F04F00F01AB88B0703D196
:10CC90000B790846902BE2D000231A462046F0E795
:10CCA000942E03D101F10803120AE2E7AB2E3FF400
:10CCB0005AAF00F10803022266E700BFC9850508E4
:10CCC0002DE9F84F0F1E054690461E4614BF4FF043
:10CCD00001094FF0000921D017F003041ED13B7960
:10CCE000212B1BD1C36A2146806AD3F8B030984704
:10CCF0004FF0000A08F1FF3BC24512D1631C2DD151
:10CD0000EB6A09EB0801A86AD3F8AC30984777BB07
:10CD100006EB880846452DD1BDE8F88F4FF0FF346B
:10CD2000E6E756F82A1081B18A070ED10B79212B3C
:10CD30000BD101340CD10AEB0904EB6AABEB0A020C
:10CD4000A86AD3F8B030214698470AF1010AD3E720
:10CD500028460F4ABDE8F84FFFF7AEBB002FD7D0EB
:10CD60002CB92246B9682846FFF7DAFED0E7002240
:10CD70003946F8E7A14556F8041B4FF00002284653
:10CD800008BF896809F10109FFF7CAFEC2E700BFC1
:10CD9000E48505082DE9F74F04460D4616461F4663
:10CDA0002846FEF70DFD20B1CEB9E36A3946DB6EA9
:10CDB0004CE02846FEF712FD08B186B1F5E7002DDC
:10CDC00055D0AB0753D16B684FEA132ADBB21D2B4A
:10CDD0001AD1EEB1083505EB8A0A55450CD103B0DE
:10CDE000BDE8F08F5B46019A59F8041B2046FFF717
:10CDF000D1FF08F101081AE03B46324655F8041B02
:10CE00002046FFF7C7FFE8E71E2B24D1002EE1D014
:10CE1000D4F810B005F108094FF000080BF1010338
:10CE200023610AF1FF33009386F001030193009B15
:10CE30004345D7DC0AF101013B463246204655F80E
:10CE40002110FFF7A7FFE36A5946DB6AA06A03B027
:10CE5000BDE8F04F18471F2B03D186F00106AD68DF
:10CE60009EE72C2B03D1AB68002BA6D19CE729466B
:10CE70002046FFF705FEE36A3A4631461B6FA06A7B
:10CE800003B0BDE8F04F18472DE9F04706691F468B
:10CE900004460D46B31C3146914606F10108036174
:10CEA000C36A806ADB6A9847E36A4146A06AD3F89E
:10CEB0008C309847A96800222046FFF731FE2D6983
:10CEC000002D2DD149462046FFF7DAFD636A197817
:10CED000E36A06291DD1D3F8CC302946A06A9847C9
:10CEE00020460121FFF7F9F8E36AA06A1B6E984714
:10CEF000E36A3146A06ADB6E9847E36AA06A41465E
:10CF0000DB6A9847E36AA06AD3F89030BDE8F0473F
:10CF10001847BA00D3F8A830A06A05329847E7E767
:10CF20002B79AC2B07D1A968334600222046FFF7A6
:10CF300031FFED68C4E7E9682046FFF7A1FDE36A29
:10CF4000A06A0121D3F8883098477B1C4A462946BD
:10CF50002046FFF799FFCBE72DE9F04104460E4646
:10CF60000025114662713246C36A056146621B683C
:10CF7000806A984706212046FFF7AFF86779012FAE
:10CF800008BF7562F5686DB1AA070BD12B793C2BF0
:10CF900008D1A968FFF774FDE36AA06AD3F8C4302A
:10CFA00098472CE033784BB929462046FFF768FDB7
:10CFB000E36A5B6B0E21A06A9847EDE7072B24D14B
:10CFC000012F12D1002343222046A3715E4BE96852
:10CFD000FFF7ABF8738B032B07D129692046FFF7C6
:10CFE000C9FB338B43EA8010308320466969FFF721
:10CFF00047FDE36AA06A9B6898470028D8D0E36A97
:10D00000A06A5B68BDE8F0411847022B1BD1E36AB8
:10D0100029681B69A06A98476379012B07D100230F
:10D020004B222046A371494BA968FFF77EF8E968B7
:10D030002046FFF725FD338B5B07ADD5E36AA06A79
:10D040001B6E9847B4E7033B032B4FD8012FD5F84D
:10D050000C8005D103223946606AFEF7EFFFB783E3
:10D06000E36A29681B69A06A98473378032B24D1A7
:10D07000E36A0122D3F8A0300021A06A98473378F0
:10D08000062B28D1E36AA06A5B6C984701212046F1
:10D09000FFF70CFCE36AA06A5B6C9847E36AA06A3E
:10D0A0005B6C98470023AA6841462046FFF7ECFED8
:10D0B0003378062B7FF470AF7AE7042B04D1E36A50
:10D0C0000322D3F8A030D7E7052BD8D1E36A062294
:10D0D000D3F8A030D0E720460121FFF7E7FBE36A51
:10D0E0000121A06AD3F888309847DBE7012F04D1EB
:10D0F00003220A213046FEF7A1FF17212046FFF741
:10D10000D5FB16212046FFF7E4FBA968E36A09096D
:10D11000A06ADB6B98471A212046FFF7DAFB2969E2
:10D120002046FFF7ADFC0A213046FEF777FF037873
:10D13000032BE36A3FF43DAF5D690A214288002377
:10D14000A06AA84728E700BFA5C800089DC8000836
:10D1500038B5436A04460A461B78072B06D0022BD3
:10D1600004D0154ABDE83840FFF7A6B9956885B9DF
:10D17000E36A0E21A06A5B6B9847E36A0021A06A0C
:10D18000D3F8CC30984720460121BDE83840FEF75F
:10D19000A4BFAB070BD12B79AE2B08D12046A968D1
:10D1A000FFF76EFC2046BDE83840FFF779B8294606
:10D1B0002046FFF765FCE0E77B8A050870B54379F8
:10D1C00004461646CD68012B06D1436A0A4631460D
:10D1D0005B8BFFF79EF868610023696920461A4659
:10D1E000FEF7C1FFE9682046FFF74AFC062E05D18D
:10D1F000E36A0021A06AD3F888309847E36A0121E6
:10D20000A06AD3F8BC500023AC461A46BDE8704073
:10D21000604700002DE9F04F4FF0000B87B0044647
:10D220001F46D946DA465E46D84603A8CDE9022114
:10D2300005AAA321FEF7D0FC0190019B9B451ADBB8
:10D240006EB1BAF1000F6CD1E36AA06A5B6C9847CB
:10D25000B9F1000F6BD1E36AA06A5B6C9847029A40
:10D26000D4E90A03002A68D0D3F8C04033464246C6
:10D270003946A04710E0059A52F82B50002D41D0B6
:10D28000A8073FD12A79A52A0FD1F10707D52C4A43
:10D2900029462046FFF710F907B0BDE8F08F46F0A9
:10D2A0000106AA460BF1010BC7E7A62A07D1B20770
:10D2B00001D5244AECE746F00206A946F2E7A72A80
:10D2C00020D1EA6822B1930702D11279AB2A12D099
:10D2D000A96801F00F02022A01D01B4AD8E7E26ACE
:10D2E0000909A06A08F10108D26B9047E968204655
:10D2F000FFF7C6FBD6E70622294620460137FFF78F
:10D300005DFFCFE70EB1114AC2E7B8F1000F01D0BF
:10D310000F4ABDE729462046FFF7B2FB01374646D4
:10D32000C0E7DAF808102046FFF7AAFB90E7D9F823
:10D3300008102046FFF7A4FB91E7D3F8BC4095E71F
:10D34000BE890508D5890508ED8905080E8A0508F6
:10D35000298A050870B50D4641790446134601290E
:10D3600003D12A46FEF7D5FF6861E36AA06ADB6C49
:10D3700098476E690023204631461A46FEF7F3FEB1
:10D38000E36AF18ADB6BA06A9847E96829B18B07E9
:10D3900003D10B79A22B08BF0021204602230022D3
:10D3A000FFF738FFF08A70BD436A10B504465A8B08
:10D3B000FFF7D0FF01462046BDE81040FFF789BACD
:10D3C000002389681A46FFF725BF38B505460C4685
:10D3D000C968FFF755FBA1682846BDE83840FFF74C
:10D3E0004FBB0B79332B70B504460D4610D18968BD
:10D3F000FFF746FBED68AD6885B9E36A0E21A06AC8
:10D400005B6B9847E36A08220221D3F8A0301AE048
:10D41000C36A0E21806A5B6B9847ECE7AB071FD1AC
:10D420002B79982B13D1E36A0E21A06A5B6B984786
:10D43000A9680029E6D02046FFF722FBE36A08220C
:10D440000321D3F8A030A06ABDE870401847992B9B
:10D4500006D1A9682046FFF713FBEB689968E8E757
:10D4600029462046FFF70CFBCCE710B50446896837
:10D47000FFF706FB0021E36AA06A1B6DBDE81040C0
:10D48000184700002DE9F7438D680446164645B954
:10D49000F2B1C36A03222946D3F8A030A06A9847A4
:10D4A00016E0AB0740F086802B79362B13D132B1D2
:10D4B000C36A03220121806AD3F8A030984720462E
:10D4C0002946FFF7DDFAE36AA06AD3F8A43098474B
:10D4D00003B0BDE8F0839D2B6CD1EB681A79A02ACC
:10D4E00058D1A12101AA03F10800FEF775FBA96834
:10D4F000804621B38F0722D10B79362B1FD136B14D
:10D50000E36A411C0322A06AD3F8A0309847A968B7
:10D510002046FFF7B5FAE36A4FF00109A06AD3F895
:10D52000A4309847002747450FDBB9F1000FCFD152
:10D53000E36A062208F10101D3F8A030AEE72046E5
:10D540004FF00009FFF79CFAECE7019B53F8271016
:10D5500099B18E0711D10E79A6F1360046424641A7
:10D560002046FFF78DFAB9F1000F0FD03EB9164AE9
:10D5700029462046FEF7A0FFAAE70026F0E7E36A67
:10D58000A06AD3F8A43098470137CCE7002EFBD02F
:10D590000E4AEDE7AB684BB19A0707D11B79362BE2
:10D5A00004D104222946FFF709FE91E70522294606
:10D5B0002046F8E729462046FFF762FAE36A06228A
:10D5C0000121D3F8A03069E71686050833860508DF
:10D5D0000122FFF757BF2DE9F041074615460C46DB
:10D5E00011B10124FFF74CFA3DB16E684FF000080D
:10D5F0000835360AB04509DB3444FB6A2146B86A6F
:10D600000022D3F8A030BDE8F041184755F8041BBC
:10D610003846FFF735FA08F10108EBE70A46002122
:10D62000FFF7D9BF2DE9F8430C4689680546FFF797
:10D6300027FAE668002E57D07768696AFBB2097846
:10D640008C2BA36819BF04F10C0601273F0A08368A
:10D65000072903F00F024BD1022A47D11A099A2A4F
:10D6600048D1326811792F2944D19268002A41D1DA
:10D670000A212846FFF71AF96A6AD36A528D32B92D
:10D68000316828463F4ABDE8F843FEF715BF597890
:10D69000C9070FD559682846FFF708F9022FEB6A2A
:10D6A0000BD8D3F8BC4000230221A86A1A46A04731
:10D6B000012417E0013A0833E1E772681179312952
:10D6C000EFD1B46821792F29EBD1916801229B6CAD
:10D6D0000909A86A9847A168032400230122284663
:10D6E000FFF798FDA74226D8BDE8F8830024F9E7A4
:10D6F000022AFBD140F2AF32B2EB131FF6D13368EE
:10D700001A792F2AF2D19B68002BEFD013F0030473
:10D71000ECD11B792E2BE5D1EB6A22462146A86A73
:10D72000D3F8BC802346C047336822462846996810
:10D73000FFF7A8FEBCE704F10108A30056F8241087
:10D74000B8451AD20A79312A17D13344D3F8049054
:10D7500099F804302F2B10D189680022EB6A09094F
:10D76000A86A9B6C984700230122D9F80810284624
:10D77000FFF750FD08F10104B4E72846A046FFF783
:10D780007FF9F7E76B860508436A0A461B78072B83
:10D7900010B5044606D0022B04D0074ABDE810405D
:10D7A000FEF78ABE20461146FFF73CFF2046BDE843
:10D7B0001040FEF775BD00BF5286050870B50D46D6
:10D7C000C9680446FFF75CF9AB68C3F30713312B54
:10D7D0000AD0322B0CBF01210221E36AA06AD3F8E0
:10D7E0009830BDE8704018470021F6E72DE9F04178
:10D7F0004E680225DFF840800C46360A89680746E5
:10D80000FFF73EF9AE4201DCBDE8F0812169384600
:10D81000FFF736F9E368B86A0235C3F30713083433
:10D82000313B082B94BF18F803101921FB6AD3F879
:10D830009C309847E6E700BFA98505082DE9F0412F
:10D840004D680C4601268968A5F10D070C342D0A98
:10D850008046FFB2FFF714F9AE4201DBBDE8F0816C
:10D8600054F8041B4046FFF70BF9D8F82C30394622
:10D87000D8F82800D3F89C3001369847ECE7000030
:10D880002DE9F0474E680D4689680446360A01279F
:10D89000FFF7F6F8DFF8CC90032E89BFD4F810809C
:10D8A0004FF0000808F1010323617B1C9E4222DC3B
:10D8B000032E55DD2569A06A6B1C29462361E36AA6
:10D8C000DB6E9847E36A4146A06ADB6A9847E36AE1
:10D8D0000121A06ADB689847E36AA06A5B6E9847FB
:10D8E000E36AA06A1B6E9847E36A2946A06ADB6A6E
:10D8F000BDE8F0471847023729692046FFF7C0F80E
:10D90000B74207DAE36AA06A9B6D9847E36AA06AA8
:10D910009B6E9847EB68E26A03F00F01A06AD2F8A9
:10D920009C200E2911D11B09383B0B2B94BF19F8F1
:10D93000031006219047B74205DAE36A4246002108
:10D94000A06A5B6F98470835AFE71979832901D141
:10D950002421EFE79B680BB90721EBE72521E9E7D5
:10D96000BDE8F087B285050810B504468968FFF761
:10D9700087F80321E36AA06AD3F89830BDE8104025
:10D9800018472DE9F0474D680446D0F8108001F1A2
:10D9900008065FFA85F900272D0AA9F11D03D3F1C6
:10D9A000000949EB030908F101030361AF4206DBFB
:10D9B000E36A4146A06ADB6ABDE8F04718470137D1
:10D9C00056F8041B2046FFF75BF8AF42EEDAE36A35
:10D9D00042464946A06A5B6F9847E7E701F00F03AC
:10D9E000022B70B504460ED04B6803F0F702462AAE
:10D9F00002D10123837170BD472AFCD0DBB2452BD5
:10DA00000DD10D696DB9A379002BF4D1E38A002BF8
:10DA1000F1D020461D4ABDE87040FEF74DBDCD68EF
:10DA2000F0E7A37943B3A38A8E6801339BB2012B3D
:10DA3000A3820ED1E18AD4E90A03D1B1D3F8A03090
:10DA400000229847E36A03220021A06AD3F8A0309D
:10DA5000984729462046FFF713F8E36AA06A310980
:10DA6000DB6B9847E36AA06AD3F8A430BDE8704046
:10DA700018475B6C9847E5E7E38A2946204601335F
:10DA8000E382BDE87040FEF7FBBF00BFCE8605080D
:10DA90002DE9F04105690446CF688846AB1C002299
:10DAA0006E1C03612B46B968FFF774F9D8F80810AB
:10DAB0002046FEF7E5FFE36A3146A06ADB6E984731
:10DAC000E36A2946A06ADB6A9847E36AA06A4FF0D6
:10DAD000FF31DB689847F9682046FEF7D1FFE36A1B
